{
  "contractName": "DropBox",
  "abi": [
    {
      "constant": true,
      "inputs": [
        {
          "name": "",
          "type": "address"
        }
      ],
      "name": "accounts",
      "outputs": [
        {
          "name": "",
          "type": "uint256"
        }
      ],
      "payable": false,
      "stateMutability": "view",
      "type": "function"
    },
    {
      "inputs": [],
      "payable": true,
      "stateMutability": "payable",
      "type": "constructor"
    },
    {
      "payable": true,
      "stateMutability": "payable",
      "type": "fallback"
    },
    {
      "constant": false,
      "inputs": [],
      "name": "drop",
      "outputs": [],
      "payable": true,
      "stateMutability": "payable",
      "type": "function"
    },
    {
      "constant": false,
      "inputs": [],
      "name": "retrieve",
      "outputs": [],
      "payable": false,
      "stateMutability": "nonpayable",
      "type": "function"
    }
  ],
  "bytecode": "0x608060405261001b610020640100000000026401000000009004565b610065565b346000803373ffffffffffffffffffffffffffffffffffffffff1673ffffffffffffffffffffffffffffffffffffffff16815260200190815260200160002081905550565b610265806100746000396000f3fe608060405260043610610057576000357c0100000000000000000000000000000000000000000000000000000000900463ffffffff1680632e64cec11461005c5780635e5c06e214610073578063f751cd8f146100d8575b600080fd5b34801561006857600080fd5b506100716100e2565b005b34801561007f57600080fd5b506100c26004803603602081101561009657600080fd5b81019080803573ffffffffffffffffffffffffffffffffffffffff1690602001909291905050506101dc565b6040518082815260200191505060405180910390f35b6100e06101f4565b005b60003373ffffffffffffffffffffffffffffffffffffffff166000803373ffffffffffffffffffffffffffffffffffffffff1673ffffffffffffffffffffffffffffffffffffffff1681526020019081526020016000205460405180600001905060006040518083038185875af1925050503d8060008114610180576040519150601f19603f3d011682016040523d82523d6000602084013e610185565b606091505b5050905080151561019557600080fd5b60008060003373ffffffffffffffffffffffffffffffffffffffff1673ffffffffffffffffffffffffffffffffffffffff1681526020019081526020016000208190555050565b60006020528060005260406000206000915090505481565b346000803373ffffffffffffffffffffffffffffffffffffffff1673ffffffffffffffffffffffffffffffffffffffff1681526020019081526020016000208190555056fea165627a7a723058202cc15ab062c264493ed9602343196b742575d7263175956a0727a55966d0222d0029",
  "source": "pragma solidity ^0.5.0;\n\ncontract DropBox{\n    mapping (address => uint) public accounts;\n\n    constructor() public payable {\n        drop();\n    }\n\n    function drop() public payable {\n        accounts[msg.sender] = msg.value;\n    }\n\n    function retrieve() public {\n        (bool success,) = msg.sender.call.value(accounts[msg.sender])(\"\");\n        if (! success ) {\n            revert();\n        }\n        accounts[msg.sender] = 0;\n    }\n\n    function() external payable {\n        revert();\n    }\n}\n",
  "sourcePath": "/home/INEAT-CONSEIL.FR/alexandrevan/ilab/poc-blockchain/ethereum/ethereum-reentrancy/contracts/Dropbox.sol",
  "compiler": {
    "name": "solc",
    "version": "0.5.0+commit.1d4f565a.Emscripten.clang"
  },
  "schemaVersion": "3.0.1",
  "updatedAt": "2019-01-25T09:07:46.527Z",
  "devdoc": {
    "methods": {}
  },
  "userdoc": {
    "methods": {}
  }
}