{
  "contractName": "DropBoxSafe",
  "abi": [
    {
      "constant": true,
      "inputs": [
        {
          "name": "",
          "type": "address"
        }
      ],
      "name": "accounts",
      "outputs": [
        {
          "name": "",
          "type": "uint256"
        }
      ],
      "payable": false,
      "stateMutability": "view",
      "type": "function"
    },
    {
      "inputs": [],
      "payable": true,
      "stateMutability": "payable",
      "type": "constructor"
    },
    {
      "payable": true,
      "stateMutability": "payable",
      "type": "fallback"
    },
    {
      "constant": false,
      "inputs": [],
      "name": "drop",
      "outputs": [],
      "payable": true,
      "stateMutability": "payable",
      "type": "function"
    },
    {
      "constant": false,
      "inputs": [],
      "name": "retrieve",
      "outputs": [],
      "payable": false,
      "stateMutability": "nonpayable",
      "type": "function"
    }
  ],
  "bytecode": "0x608060405261001b610020640100000000026401000000009004565b610065565b346000803373ffffffffffffffffffffffffffffffffffffffff1673ffffffffffffffffffffffffffffffffffffffff16815260200190815260200160002081905550565b610281806100746000396000f3fe608060405260043610610057576000357c0100000000000000000000000000000000000000000000000000000000900463ffffffff1680632e64cec11461005c5780635e5c06e214610073578063f751cd8f146100d8575b600080fd5b34801561006857600080fd5b506100716100e2565b005b34801561007f57600080fd5b506100c26004803603602081101561009657600080fd5b81019080803573ffffffffffffffffffffffffffffffffffffffff1690602001909291905050506101f8565b6040518082815260200191505060405180910390f35b6100e0610210565b005b60008060003373ffffffffffffffffffffffffffffffffffffffff1673ffffffffffffffffffffffffffffffffffffffff16815260200190815260200160002054905060008060003373ffffffffffffffffffffffffffffffffffffffff1673ffffffffffffffffffffffffffffffffffffffff168152602001908152602001600020819055503373ffffffffffffffffffffffffffffffffffffffff166108fc829081150290604051600060405180830381858888f193505050501580156101af573d6000803e3d6000fd5b50806000803373ffffffffffffffffffffffffffffffffffffffff1673ffffffffffffffffffffffffffffffffffffffff16815260200190815260200160002081905550600080fd5b60006020528060005260406000206000915090505481565b346000803373ffffffffffffffffffffffffffffffffffffffff1673ffffffffffffffffffffffffffffffffffffffff1681526020019081526020016000208190555056fea165627a7a72305820b79e8034bc0c95672715e5d73cdb682ba2f774e18caabea382155e0e2032ac4b0029",
  "source": "pragma solidity ^0.5.0;\n\ncontract DropBoxSafe{\n    mapping (address => uint) public accounts;\n\n    constructor() public payable {\n        drop();\n    }\n\n    function drop() public payable {\n        accounts[msg.sender] = msg.value;\n    }\n\n    function retrieve() public {\n        uint amount = accounts[msg.sender];\n        accounts[msg.sender] = 0;\n       \n        msg.sender.transfer(amount);\n \n            accounts[msg.sender] = amount;\n            revert();\n        \n    }\n\n    function() external payable {\n        revert();\n    }\n}\n",
  "sourcePath": "/home/INEAT-CONSEIL.FR/alexandrevan/ilab/poc-blockchain/ethereum/ethereum-reentrancy/contracts/DropboxSafe.sol",
  "compiler": {
    "name": "solc",
    "version": "0.5.0+commit.1d4f565a.Emscripten.clang"
  },
  "schemaVersion": "3.0.1",
  "updatedAt": "2019-01-25T09:07:46.528Z",
  "devdoc": {
    "methods": {}
  },
  "userdoc": {
    "methods": {}
  }
}