{
  "contractName": "ValueOracle",
  "abi": [
    {
      "constant": true,
      "inputs": [],
      "name": "owner",
      "outputs": [
        {
          "name": "",
          "type": "address"
        }
      ],
      "payable": false,
      "stateMutability": "view",
      "type": "function"
    },
    {
      "inputs": [],
      "payable": false,
      "stateMutability": "nonpayable",
      "type": "constructor"
    },
    {
      "anonymous": false,
      "inputs": [
        {
          "indexed": false,
          "name": "value",
          "type": "string"
        }
      ],
      "name": "ValueUpdate",
      "type": "event"
    },
    {
      "constant": false,
      "inputs": [
        {
          "name": "value",
          "type": "string"
        }
      ],
      "name": "updateValue",
      "outputs": [],
      "payable": false,
      "stateMutability": "nonpayable",
      "type": "function"
    }
  ],
  "bytecode": "0x608060405234801561001057600080fd5b50336000806101000a81548173ffffffffffffffffffffffffffffffffffffffff021916908373ffffffffffffffffffffffffffffffffffffffff1602179055506102b6806100606000396000f3fe60806040526004361061004c576000357c0100000000000000000000000000000000000000000000000000000000900463ffffffff168063348c4a1f146100515780638da5cb5b14610119575b600080fd5b34801561005d57600080fd5b506101176004803603602081101561007457600080fd5b810190808035906020019064010000000081111561009157600080fd5b8201836020820111156100a357600080fd5b803590602001918460018302840111640100000000831117156100c557600080fd5b91908080601f016020809104026020016040519081016040528093929190818152602001838380828437600081840152601f19601f820116905080830192505050505050509192919290505050610170565b005b34801561012557600080fd5b5061012e610265565b604051808273ffffffffffffffffffffffffffffffffffffffff1673ffffffffffffffffffffffffffffffffffffffff16815260200191505060405180910390f35b6000809054906101000a900473ffffffffffffffffffffffffffffffffffffffff1673ffffffffffffffffffffffffffffffffffffffff163373ffffffffffffffffffffffffffffffffffffffff161415610262577f8477fad2a2699d52aae80acee624233b04be2b502fd07a60219f920eefbd0001816040518080602001828103825283818151815260200191508051906020019080838360005b8381101561022757808201518184015260208101905061020c565b50505050905090810190601f1680156102545780820380516001836020036101000a031916815260200191505b509250505060405180910390a15b50565b6000809054906101000a900473ffffffffffffffffffffffffffffffffffffffff168156fea165627a7a723058203484f46ad4e723a16d235e276a265e5e97a348adf81e5e4b7af152f2927b58380029",
  "source": "pragma solidity ^0.5.0;\n\ncontract ValueOracle {\n  address public owner;\n  \n  event ValueUpdate (string value);\n  \n    modifier restricted() {\n        if (msg.sender == owner) _;\n    }\n  \n    constructor () public {\n        owner = msg.sender;\n    }\n  \n    function updateValue (string memory value) public restricted {\n        emit ValueUpdate (value);\n    }\n}\n",
  "sourcePath": "/home/INEAT-CONSEIL.FR/alexandrevan/ilab/poc-blockchain/ethereum/ethereum-oracle/weather/contracts/ValueOracle.sol",
  "compiler": {
    "name": "solc",
    "version": "0.5.0+commit.1d4f565a.Emscripten.clang"
  },
  "schemaVersion": "3.0.1",
  "updatedAt": "2019-02-08T14:28:07.171Z",
  "devdoc": {
    "methods": {}
  },
  "userdoc": {
    "methods": {}
  }
}